:020000040800F2
:10000000F8F704202503000873140308611403089B
:1000100075140308811403088D1403080000000000
:100020000000000000000000000000009914030818
:100030009B14030800000000211903085919030844
:10004000B10100081B150308251503082D15030829
:1000500031720308B1010008A9140308AF140308A2
:10006000B5140308BB140308C11403082D35030895
:100070003D3503084D3503085D3503086D3503082C
:100080007D3503088D350308B1010008B101000872
:10009000B1010008B1010008B1010008C71403084C
:1000A0004115030847150308591503085F15030890
:1000B000651503086B15030871150308CB150308B4
:1000C000D1150308B1010008B1010008B101000811
:1000D000B1010008A7150308AD150308B3150308FF
:1000E000EB1403081F150308B1010008B101000853
:1000F0009D150308B1010008A3150308B10100080C
:10010000B1010008B101000879150308B101000828
:10011000B9150308BF1503089115030897150308BF
:100120009D350308AD350308BD350308CD350308FB
:10013000DD350308B1010008B1010008B101000874
:10014000B1010008B1010008B10100089D140308C5
:10015000ED350308FD350308C5150308B101000896
:10016000B1010008B1010008B1010008B1010008A7
:10017000B1010008B1010008B10100080000000051
:10018000B1010008B1010008B1010008B101000887
:10019000B1010008B1010008B1010008B101000877
:0C01A000B1010008B101000800000000DF
:1001B000FEE700000E4AD2F8883043F47003C2F81C
:1001C00088300C4B1A68002142F001021A609960D5
:1001D0001A6822F0A85222F410221A604FF48052BA
:1001E000DA601A6822F480221A609961704700BFB1
:1001F00000ED00E0001002402DE9F041BAB0424DA0
:100200001022002102A828F0E3FB2422002107A8E5
:1002100028F0DEFBD5F8903023F01803C5F89030B5
:100220001423069360230E930F23012402260193C7
:100230004FF00708282306A8CDE91338CDE9156645
:100240000C9411940894109612942CF03BFB10B16E
:100250002E4830F023FE139B129A3021DB00B3FBB3
:10026000F2F3B3FBF1F201FB1232003A1499B3FB43
:10027000F1F118BF012201A831F034FC074608B1A2
:100280002348E6E72DF090F9224B17934FF4406393
:100290002A934FF0805336934FF080633393359316
:1002A0004FF4807339931823CDE91A3817A81A4BE5
:1002B0002B97CDE91844CDE91C6631971E932CF09D
:1002C0006DFF044608B11548C3E7AB6D43F080539A
:1002D000AB65AB6D03F0805300934FF40070009B4F
:1002E0002CF0F0F92CF030FE4FF47A73B0FBF3F001
:1002F00029F0C8FE042029F0D9FE094B83F82340D9
:100300003AB0BDE8F08100BF00100240087D03084C
:100310001A7D030860680600000011012E7D0308A5
:1003200000ED00E00446DFF82CD00B490B4A0C4BE3
:1003300003E051F8040B42F8040B9A42F9D3002071
:100340000849094A01E041F8040B9142FBD32046D9
:1003500030F0E2BEF8F7042088DD04080000002039
:100360004800002048000020180A002040F8044BF4
:1003700040F8045B40F8046B40F8047B40F8048BC1
:1003800040F8049B40F804AB40F804BB40F804CBB1
:1003900040F804DB68467047024B5A6902605861B6
:1003A0000020704748000020024B5A6912685A61C9
:1003B000704700BF48000020C46005614661876146
:1003C000C0F81C80C0F82090C0F824A0C0F828B065
:1003D000C0F82CD080ED0C8B80ED0E9B80ED10AB27
:1003E000C0F808E0FFF7D8BF104908B54B690BB952
:1003F00030F07EFE1A6858604A611846C468056984
:1004000046698769D0F81C80D0F82090D0F824A0E5
:10041000D0F828B0D0F82CD090ED0C8B90ED0E9B3E
:1004200090ED10ABD0F808E00120704748000020A4
:1004300010B50021044600F0ABFA18B914B12046FB
:100440000DF0C8FA10BD002100F0A2BA10B50121CC
:10045000044600F09DFA18B914B120460DF0BAFA1E
:1004600010BDFFF7E5BF10B501220C4600F0A8FB58
:1004700018B914B120460DF0ADFA10BD00F0A0BBC4
:1004800000F060BB2DE9F0432B4C864600254FF071
:10049000030CD4F89402002101310EEB01039A08F9
:1004A00003F00303825C5B0042FA03F303F00303EF
:1004B000022BF1D0D4F8A002090100EB0E108E0837
:1004C00089B300EB860603681A0729D1D4F8A01275
:1004D0005A1AC2F3011E99424FEA92174FEA4E0E82
:1004E0004FEA12121CD8D4F8A412994218D9D4F8A1
:1004F000948218F8071041FA0EF303F003030CFA84
:100500000EF9012B41EA09010AD104EB450E3F2DFA
:1005100008F807109ABF0135AEF8B022C4F8AC3223
:100520000430B042CFD12DB1013D04EB4503B3F807
:10053000B0E2AEE7BDE8F0834800002030B51C4CC7
:10054000D4E9A753C01AC109C0F3021E6B5C012293
:1005500002FA0EF223EA02036B54D4F8A8228309AC
:100560004FEA101CB2EB901FD4F8940288BFC4F875
:10057000A832C15C4FEA9C0E0CF0030303255B001C
:1005800005FA03F321EA030100F80E100CF1010C47
:10059000D4F894024FEA9C0E0CF0030310F80E10EE
:1005A0005A0041FA02F202F00302022AE7D030BDFB
:1005B0004800002021F00F0138B50B1A134A144CE3
:1005C000013BDB00A2FB03235B0A9A00C4E9A503FD
:1005D0000546C4F8A4120732A1EB831101331D4470
:1005E00003EBD202C4F8A0120021C4F89C5228F0F8
:1005F000EFF9002301214FF0FF32C4E9CD32C4F8F6
:10060000A8322381A4F8301338BD00BFF32C23FA9D
:1006100048000020024A138901331381704700BF4C
:1006200048000020024A1389013B1381704700BF34
:1006300048000020024B1889003818BF012070477D
:1006400048000020F8B51B4D2B8900220133C5F866
:1006500034232B81C5F8AC2205F1080405F5F476A6
:1006600054F8043F1A071AD1D5F8A022981AC0F3FB
:10067000011193424FEA901C4FEA41014FEA1010DA
:100680000DD3D5F8A422934209D2D5F8947217F865
:100690000C2042FA01F303F00303012B02D0A6421F
:1006A000DED1F8BD03238B401A4307F80C20FFF777
:1006B000E9FEF4E74800002081B3F8B5184E0F4674
:1006C000051F002455F8043F1A071AD1D6F8A022B6
:1006D000981AC0F3011C9A424FEA90114FEA4C0C51
:1006E0004FEA10100DD8D6F8A4229A4209D9D6F8AC
:1006F00094E21EF8012042FA0CF303F00303012BED
:1007000003D00134A742DDD1F8BD032303FA0CF373
:100710001A430EF80120FFF7B5FEF2E7704700BF5D
:10072000480000202DE9F04F564ED6F89832D6F802
:10073000AC2285B09800C2B10025C6F8AC520028A2
:1007400075D00024D6F89412A30804F00302CB5C01
:100750005200134103F00303032B71D00134844290
:10076000F0D3D6F8AC32002BE7D100285FD04FF0A1
:10077000000C654603274FF001094FF00208D6F838
:1007800094E24FEA950A05F003041EF80A2064007B
:1007900042FA04F303F00303022B0EEB95016DD034
:1007A000032B5FD0012B3FD1D6F89C02EB0805F05C
:1007B000070B10F803E0019300EBD50C4EFA0BF099
:1007C000C30727D5D6F8A0022901415800EB051030
:1007D000A9B102AAB2210CF0B5FADDE9013242B1A9
:1007E0000DF04AFBDDE902010DF016FB0DF05AFB9E
:1007F000019BD6F89C2212F803E002EB030C09FAE5
:100800000BFB2EEA0B0E8CF800E0D6F8941211F8D0
:100810000A20514407FA04F422EA04040C70D6F8C2
:1008200098324FF0010C980001358542A7D33389E7
:100830000022013BC6F8A822338105B0BDE8F08F45
:100840002046FFF71FFED6F898320134B4EB830F31
:100850004FEA8300FFF476AFD6F8AC32002B7FF47A
:100860006CAF82E708FA04F422EA04020EF80A20C8
:10087000D6F898324FF0000C9800D5E7BCF1000F85
:10088000D2D0C7E748000020044B1A89002101326A
:10089000C3F8AC121A81FFF745BF00BF4800002023
:1008A0003A4B2DE9F04FD3E9A8420021121BD3E9BE
:1008B000A554C0E90111C0E90311C0E905110260A6
:1008C0004FEA840C8B460E460C460A4689468846FB
:1008D0008E4615F809304FEA480843FA08F303F04A
:1008E0000303012B48D0022B42D02BB90BF1010B93
:1008F000C0F808B001361C46013294450DD04FEACD
:10090000920902F0030815F809304FEA480A43FA41
:100910000AF39F07DDD403F00303012C13D0022C4C
:1009200004D1476907F10108C0F814808769A7421C
:1009300038BF8461944511D0012B21D04FEA920930
:1009400002F00308C5E7076907F101088769C0F8E5
:100950001080A74238BF84619445EDD1B64500D2DE
:10096000C66009014FEA0B17C0E90117BDE8F08F17
:10097000013141600134BFE7013141601C46BBE7F2
:10098000B64501D2C660B6460026D7E7480000202B
:100990002DE9F84300F10F06360953D0684C23893E
:1009A000002B4FD1B4F830230D46002A50D0D4E9A3
:1009B000CD1291424AD2D4F8A802D4F898128842B3
:1009C00038BF9E464DD2D4F894C2013801396044F4
:1009D00061440022CCF1010718E0013296424BD964
:1009E00013F00C0F1ED10132964240F2998013F0A1
:1009F000300F1CD10132964240F297803F2B1AD81B
:100A00000132964240F29680814218D007EB0008EE
:100A100010F8013F13F0030FDFD013F00C0F4FF06D
:100A20000002E0D013F0300F4FF00002E2D03F2B75
:100A30004FF00002E4D981424FF00002E6D1BEF14E
:100A4000000F0ED000231846BDE8F88334F01EFADC
:100A5000D4F8A802D4F898128842F3D24FF0010ECD
:100A6000B1E734F013FAD4F8A802D4F8981281420E
:100A70004FF0010EA7D8E5E74FEA8808A8EB02017E
:100A8000012A01F1010704D108F101039B08C4F810
:100A9000A832B80807F0030E1CF800904FEA4E0E7B
:100AA0000123023103FA0EF343EA090388450CF8E7
:100AB000003012D34FF0020E8808D4F894C201F02F
:100AC00003031CF800905B000EFA03F3013143EAC4
:100AD000090388450CF80030EED2D4F83433D4F84A
:100AE000A0823344C4F8343308EB071312011846CC
:100AF000002127F06DFFEA074FEA07160346A2D54B
:100B00000022D4F89C0248F80620F9080122445C2F
:100B100007F00707BA40224342541846BDE8F8835D
:100B20004FEA880808F10108A8E74FEA880808F1A9
:100B30000208A3E74FEA880808F103089EE700BF10
:100B400048000020034B1A8912B908B1FFF7F6BC20
:100B5000704700BF48000020034610F00F001BD173
:100B6000164AD2F8A012994218D810B4D2F8A4426A
:100B70009C420ED95B1AD2F894429A09C3F3011130
:100B8000A25C49000A4102F00302012A4FEA131352
:100B900005D05DF8044B7047002070477047013066
:100BA0001A18910802F00302615C520041FA02F245
:100BB00002F00302022AF2D00001EAE74800002016
:100BC0002DE9F84F0E460546002800F0C0806D4C18
:100BD0002389002900F08280002B40F08280D4F825
:100BE000A012D4F89872A0EB01084FEA181000F197
:100BF000010E06F10F01BEEB870F4FEA11114FEA0C
:100C0000870A80F0AA80D4F894929C4601274FEA84
:100C10009E030EF0030B19F803304FEA4B0B43FA17
:100C20000BF303F00303022B5FD02BB90CF1010C83
:100C30000CEB07038B4259D3B9424BD05BD3BC4476
:100C40008C451BD2D4F89C324FEAD81813F8081000
:100C5000002A46D000F00700014101F001013046B2
:100C6000FFF796FE0646E0B33A01294627F06CFEF0
:100C7000238983BB2846FFF761FC2CE0C21900EBF7
:100C8000010C94451FD9900802F0030319F8006085
:100C90005B004FF0020E01320EFA03F3334394452A
:100CA00009F800300FD99608D4F8940202F0030333
:100CB00010F806805B000EFA03F3013243EA0803E2
:100CC00094458355EFD1CA1B1201002105EB071093
:100CD00027F07EFE2E463046BDE8F88F0BB9FFF7B1
:100CE0002DFC00263046BDE8F88F01370EF1010ECD
:100CF000F2458CD1A0E746184FEA960806F00303A8
:100D000019F808E05B004FF0030C791A0CFA03F3B2
:100D10002EEA0303012909F8083006F101060FD075
:100D20003844B108D4F8947206F003037A5C5B008F
:100D30000CFA03F3013622EA030386427B54F0D116
:100D4000D4F8A8324345C5D9C4F8A882C2E7014601
:100D50003046BDE8F84FFFF71BBE0129BAD009B1F4
:100D600001276FE7D4F894624FEA981800F0030166
:100D700016F80830490003228A4023EA020306F8E5
:100D80000830DDE74800002010B58AB0044603A80B
:100D9000FFF786FDDDE90430039A009007492046FD
:100DA00000F06CFFDDE9083206980549CDE9002026
:100DB000079A204600F062FF0AB010BDE0D2030897
:100DC00008D303082DE9F84F4E4F4F49D7F8A0221A
:100DD000804600F053FFD7F8981289007AD0DFF8E8
:100DE0005C91DFF85CA1002515F03F064FEA950BFA
:100DF00033D005F003067600D7F8942212F80B30B2
:100E0000334103F00303022B6CD0032B68D0012B7A
:100E100053D1D7F8A0222B01D258524564D03B4B76
:100E20009A4263D03A4B9A4264D03A4B9A425FD08E
:100E3000394B9A425CD0394B9A425DD0384B9A423A
:100E40005AD0384B9A425BD0374B9A4256D0374BE8
:100E50009A4214BF68224D2230E0A94227D9D7F820
:100E6000940210F80B20920721D12C4605E010F8CF
:100E70000CC04CFA02F2930708D1013404F00302CB
:100E80008C424FEA940C4FEA4202F0D1621B7F2A57
:100E90000DD927499209404600F0F0FED7F8983264
:100EA00024F03F05B5EB830F14D24FEA950B2A01CE
:100EB0004946404600F0E2FE9EE72E221D4940468C
:100EC00000F0DCFED7F898320135B5EB830F4FEA1E
:100ED000830189D340461849BDE8F84F00F03BBB79
:100EE0006D22EBE73D22E9E75422E7E74C22E5E7F4
:100EF0005322E3E74422E1E74122DFE74222DDE734
:100F00004622DBE74800002050D30308FC16040803
:100F1000D00E04085C1F04082C1F0408500C0408A1
:100F2000DC0B040878130408E013040864180408B0
:100F300070D3030894D303086CD303088CD303083D
:100F4000B0200408054A0346106A1A6841688A42BC
:100F500002D3521A1A6070470068F7E74800002071
:100F6000014441F20553884204D398B2012838BFA6
:100F70000120704710F8012B03EB43135340F2E7B5
:100F8000034B044A1A620022C3F8EC21704700BFE9
:100F900048000020F86804082DE9F04780460E4616
:100FA000FFF7DEFF124B1C6A07460CB920461AE019
:100FB000D4F80C90002504F1180A4D4501D124689D
:100FC000F3E7236933F81530BB420ED163695B5DEB
:100FD000B3420AD15AF825003246414627F020FD97
:100FE00018B960682844BDE8F0870135E5E700BF1F
:100FF000480000202DE9F84381460E46FFF7CCFF5C
:101000000246002840F08B80FF2E03D94549464810
:101010000BF01AFF454CD4F8EC01751C90B1D4E9E3
:101020007C132B448B4229D92944FFF727FA074622
:10103000D8B90246D4F8F411D4F8EC01FFF71EFA3F
:10104000C4F8EC71802D2F4638BF80273846FFF753
:10105000FAF9C4F8EC01D0BB2846FFF7F4F9C4F85C
:10106000EC0198BB28460CF0B5FCD4F8F0312B44C9
:10107000C4F8F031D4F8EC31002BE3D0D4F8F431DB
:10108000D4F8EC7131461F4448462B44C4F8F4317F
:10109000FFF766FF49468046324638464FF0000962
:1010A00027F052FC07F80690236AD3E90253AB42BB
:1010B00025D36D000A2D38BF0A25C5EBC5001830B1
:1010C000FFF7C1F948B9C4F8EC01CBE72F4600237C
:1010D000C4F8F071C4F8F431D0E700F11803226AC3
:1010E000026003EB8503036103EB4503436153682F
:1010F000D268C0F80C901344C0E901352062236A1D
:10110000D3E903215B6921F812809E54911D236A63
:1011100043F82170D9680131D9605B681A441046E0
:10112000BDE8F883487D03086C10040848000020DF
:1011300010B5044627F086FC01462046BDE8104065
:10114000FFF758BF07B5019001A8FFF7FBFE019A12
:10115000036933F8120003B05DF804FB07B5019092
:1011600001A8FFF7EFFE019B4269D05C03B05DF878
:1011700004FB07B5019001A8FFF7E4FE019B0633CD
:1011800050F8230003B05DF804FB13B5019001A8EB
:101190000C46FFF7D7FE019B4269D25C2260063302
:1011A00050F8230002B010BD2DE9F8431D4600237E
:1011B00003600B6013602B60164BDFF85C901C6AB9
:1011C00007468846164664B92B68326813442B607C
:1011D000BDE8F883336812F8010B01330344336030
:1011E0000DE04C45F0D03B6801333B60E268D8F835
:1011F00000301344C8F800306269E368D1188A42AD
:10120000E8D32046FFF7A8FC2B68246803442B6032
:10121000D9E700BF48000020F86804082DE9F8432A
:101220000D4B0E4F1C6ADFF83880DFF838900CB198
:10123000BC4201D1BDE8F883E36804F1180505EB71
:101240008306B54201D32468F1E755F8042B4146E3
:10125000484600F013FDF4E748000020F868040851
:10126000507D03085CFF030830B50023202511F8EA
:10127000012F0AB9027030BD120600F1010420D519
:1012800013B12023037020460B78124A03F07F032A
:101290006BB9013A12F8013F13F0800F044600F1D8
:1012A00001000BD003F07F0323700123DFE712F965
:1012B000014B002CFBDA013BDBB2E9E700F8013C13
:1012C000E8E7012B04BF057020460B7800F8013BCE
:1012D0000223CCE7577D030838B5436819440368F7
:1012E0009942054610D9037B1BB1084800210BF039
:1012F000ABFD01F1100424F0070408348068214696
:10130000FFF7B1F82C60A86038BD00BF6C1004086E
:1013100070B504460E4611461546FFF7DDFFD4E9C9
:1013200001302A461844314627F03EFB63682B44BF
:10133000636070BD70B54668B142044628BF31464F
:101340000D460121FFF7C8FFA368681C5919721BDD
:10135000184427F029FB6368A068013363602844C0
:1013600070BD38B50129044638BF01210025084663
:1013700021606560FFF75CF82573A06038BD38B563
:1013800005460C460131FFF7ECFF6C6038BD0023C9
:10139000C0E90132012301600373704738B5144678
:1013A0000546FFF7DEFF024B2560636038BD00BFD6
:1013B00011130008037B10B5044613B98068FFF7CA
:1013C0005FF80023A36010BD38B505461020FFF775
:1013D0002FF829460446FFF7C4FF204638BD10B554
:1013E000044648B1037B13B98068FFF749F82046EB
:1013F000BDE81040FFF744B810BD000038B5037BCE
:1014000004460D461BB1074800210BF01DFD016885
:1014100080682944FFF727F82368A0601D442560F1
:10142000184438BD6C10040838B504460D46FFF763
:1014300053FFD4E901301D446560184438BDD0E93C
:1014400000239A4210B5044602D10121FFF7D6FFCE
:10145000D4E901320021D154A06810BD10B50C466A
:101460000121FFF7E1FF047010BD7F29F8B50C469C
:10147000CEB204D80121FFF7D7FF0670F8BD06F001
:101480003F06B1F5006FC1F3871546F0800607D21D
:101490000221FFF7C9FF65F03F0505704670EDE7D3
:1014A00005F03F05B1F5803FC1F3073745F08005F2
:1014B00008D20321FFF7B8FF67F01F0707704570D8
:1014C0008670DBE70421FFF7AFFFA40C07F03F07AE
:1014D00064F00F0467F07F07047047708570C67072
:1014E000CCE738B5054608460C4627F0ABFA21464E
:1014F00002462846BDE83840FFF70ABF10B514463B
:10150000FFF718FF047010BD10B51446FFF712FF67
:10151000047010BD43688B422CBF591A00214160F2
:10152000704738B50446154662688A42084603D9B2
:1015300029448A4201D8606038BDA368521A184411
:10154000194427F031FA63685B1B6360F4E70846CF
:10155000114628F0F9B970B5054608460E4627F041
:1015600071FA044620B102466B68286831469847F4
:10157000204670BD2DE9F74F8A469DF83010914600
:101580000D9A11F0DF0F0646A2EB09023FD0302979
:101590000CA9254F1ABF4FF001080F464FF0100855
:1015A00013F0800537D002EBD2746510A2EB64040F
:1015B000002D37DDAB46D845424673683068A8BF7A
:1015C0005A46394601929847019AABEB020BBBF1A0
:1015D000000FF0DCB9F1000F05D0736830684A469F
:1015E000514698474D44002C0DDD2544A045C14689
:1015F000A8BFA146736830684A463946A4EB09047F
:101600009847002CF2DC284603B0BDE8F08F074F66
:101610004FF01008C4E713F0010401D11546C7E7E5
:101620001446D7E70025D5E764FF030875FF0308D4
:101630002DE9F04389B006460020119D9DF84880B1
:10164000139F8DF80F000AB381421ADA2D228DF80C
:101650000F204942109A08ACA2F10A000DF11009BE
:10166000B1FBF3FC03FB1C12092A8CBF12183032A9
:1016700004F8012D4C458E4661460ED07345EFD9D6
:101680000BE0A80727D52B228DF80F200029E1D1E8
:1016900030238DF81F300DF11F0415F040099DF81F
:1016A0000F301CD023B30122CDE900822B460DF16F
:1016B0000F013046FFF75EFF013F814608AACDE9E2
:1016C00000872B46121B21463046FFF753FF484444
:1016D00009B0BDE8F0836A07D8D52022D4E7002BF3
:1016E000ECD004AA9442E9D904F8013C013CE5E7B6
:1016F0009946E3E72DE9F04F93B081461E46C807AF
:101700009DF874301C9D0793DDE91E870C469246B8
:101710000BD4A10703D121687F4B994205D0204605
:101720000DF0A2F9440044F0010415F0810306D144
:10173000079A302A03D1B845B8BFB8461F4620469D
:1017400010F02DFB00280DF1280B18DBAA0712D58D
:101750002B238DF828300DF12903E806F6B21CD5AD
:10176000BAF1020F0DD11946302001F8020B701C9E
:1017700058700B4611E06B0701D52023E9E75B4663
:10178000EBE7BAF1080F62D130211970A90545BF06
:1017900006F10E01597001330233002115F0200FBC
:1017A0001970A3EB0B03069314BF2C230B46012FD8
:1017B0000EA8C8BF45F040050B9015F040024FF051
:1017C0001000CDE90C01CDE902638DF827100592D8
:1017D00047D0CDE900A123460DAA0CA90BA810F013
:1017E000B3F903782D2B824606D18DF827300D9B57
:1017F000013B00F1010A0D93012F40F385800D9C00
:10180000059BBC42B8BF3C462BB19DF8273003B1C5
:101810000134069B1C44A0452EDD15F00103A8EB06
:1018200004042AD126461C4625F001054EB120238A
:1018300000930023019639491A464846FFF79AFE5D
:101840000646059B002B5CD1302307933AE0BAF1A2
:10185000100FA2D11946302001F8020B06F1170033
:1018600086E70AABCDE900A30DAA23460CA90BA875
:1018700010F06AF98246BFE700240026D4E700246E
:1018800026469DF827305BB100230122CDE90032C6
:101890000DF127014846FFF76DFE08F1FF380644B9
:1018A000069B63B100230122CDE900325946069A16
:1018B0004846FFF75FFE069B0644A8EB0308012F8E
:1018C000D8BF4746079B00930D9A01972B46514678
:1018D0004846FFF74FFE06444CB1202300930023F7
:1018E0000E4901941A464846FFF744FE06440B98F9
:1018F0000EAB984201D0FEF7C3FD304613B0BDE8F1
:10190000F08F30230793BCE7059B002BB7D11C4613
:101910001E464746D6E700BFE415040886C70308FD
:101920002DE9F0431646B2078BB098465ABFC6F36E
:1019300080035B012B2300930A46139BDDF848903C
:101940000746202102A80AF0AFF9F305044610D596
:10195000431C1F2B0DD800F128020DEB0204252299
:1019600004F8202C03F128026A44002102F8201C0C
:101970001C4616F040051DD09DF808302F2B4FF067
:10198000000319D8012202A9CDE900323846FFF739
:10199000F1FD09F1FF390546013C0DF10901CDE9E1
:1019A0000089334622463846FFF7E4FD28440BB051
:1019B000BDE8F08302A9F2E702A91D46EFE70000A7
:1019C0002DE9F04F824689B0144600260B461D468D
:1019D00013F8012B82BBA94231D30B78002B00F006
:1019E0004581013120234FF000080A4612F8015BBF
:1019F0003DB12B2D39D02CD8202D39D0212D3AD0E6
:101A000000250F4611F8012BA2F13000092835D925
:101A10002E2A5ED17A782A2A36D000220F4611F873
:101A2000010BA0F1300CBCF1090F30D80A2707FBDD
:101A3000020BABF13002F1E7252AC8D1CBE76F1AD0
:101A4000DAF80430DAF800003A4698473E4429466E
:101A5000C3E72D2D05D0302DD2D148F040082B46BC
:101A600001E048F001081146BFE748F00208FAE734
:101A700048F00408F7E748F00808F4E70A2000FBFC
:101A80000522A2F13005BCE754F8042B023722EA04
:101A9000E27B3A786C2A08BF013797F80090B9F1D9
:101AA000000F00F0E380B9F1780F09D8B9F1570FB2
:101AB00012D8B9F1470F59D8B9F1440F00F2C380D9
:101AC000DAF80430DAF80000012239469847013686
:101AD00063E04FF0FF3BDCE7A9F15802202AEFD882
:101AE00001A151F822F000BF251C0008C11A00080E
:101AF000C11A0008C11A0008C11A0008C11A00085A
:101B0000C11A0008C11A0008C11A0008C11A000849
:101B1000831B0008A51B0008091C0008471C0008BF
:101B2000471C0008471C0008C11A0008C11A000819
:101B3000C11A0008C11A0008C11A0008C11A000819
:101B4000C11A0008C11A0008731B0008B91B00085D
:101B5000C11A0008E31B0008C11A0008251C000870
:101B6000C11A0008C11A0008251C0008B9F1500F5D
:101B7000A6D1CDE9023561230093CDF8048010236E
:101B80005FE054F8042BCDE9003543463AB13949BA
:101B900004225046FFF7EEFC0644791C16E736494E
:101BA0000522F6E754F8042B8DF81C20CDE900350A
:101BB0000122434607A9ECE707A954F8040B059353
:101BC000FFF7E3FABBF1FF3F059B014604D0079AFC
:101BD000934538BFCDF81CB0CDE90035079A434690
:101BE000D7E754F8049B0593484626F02BFFBBF13A
:101BF000FF3F059B024602D0584528BF5A46CDE913
:101C0000003549464346C4E7CDE9023561230093D8
:101C1000CDF804800A23012254F8041B5046FFF734
:101C200007FDB9E729F00F0209F101010F3A01F0B0
:101C30000601D2B2CDE90235CDF804800092C1F19F
:101C400010030022E8E7073424F00704F4E8020157
:101C5000059335F059FECDE9005B00EE100A059BB7
:101C6000424649465046FFF75BFE95E7304609B0CD
:101C7000BDE8F08F20A9030825A903080EB403B519
:101C800003AA52F8041B0192FFF79AFE02B05DF816
:101C900004EB03B070470346007893F90020002A54
:101CA0000ADA00F07F004022104206D113F8012F1B
:101CB00002F0C001802904D0704720EA02005208D7
:101CC000F2E702F03F0242EA8010EFE7431C1846B9
:101CD0000133027802F0C002802AF8D07047034630
:101CE0000020994200D8704711F8012D02F0C0027F
:101CF000802A18BF0130F4E70346014400209942CE
:101D00001A4600D87047127802F0C002802A03F108
:101D1000010318BF0130F2E77F289DBF024B185C1A
:101D2000C0F340000020704786FF03087F289DBF56
:101D3000024B185CC0F3C0000020704786FF030808
:101D40007F289DBF024B185CC0F3800000207047C5
:101D500086FF03087F289DBF024B185CC0F38010EC
:101D60000020704786FF03087F2809D8064B1B5CBC
:101D700013F00C0F06D1A0F15F0358425841704791
:101D8000002070470120704786FF03087F289DBF11
:101D9000024B185CC0F300100020704786FF030858
:101DA0007F289DBF024B185CC0F340100020704795
:101DB00086FF030808B50246FFF7E8FF00B12032AE
:101DC000104608BD08B50246FFF7EAFF00B1203A09
:101DD000104608BD3038092884BF20F0200007389D
:101DE000704710B502460144E5240020914203D813
:101DF000B0FA80F0400917E012F8013B30B103F06F
:101E0000C003802B11D10138C0B2EFE7BF2B09D935
:101E1000F72B09D8DB0803F0060344FA03F303F0B9
:101E20000300E3E71B06E1D510BD0020FCE7023903
:101E300081420B4603D31A880239002AF8D00233B4
:101E4000181A40107047B2EB131FF0B504464FEA62
:101E5000131519D9501B01EB450103F00F0305467B
:101E600026460F4635B904EB400434F8023C03B96A
:101E70000138F0BD012D31F8022B18BF3A68DA4065
:101E800026F8022B013DECE70020F2E7F0B5059FB4
:101E90000024D21B2546A7420FD100EB470601EBD9
:101EA000470100239A4213D106EB420315B126F8ED
:101EB00012500233181A4010F0BD31F8146033F894
:101EC00014C06644354420F814502D0C0134E2E768
:101ED00031F813402C4426F81340250C0133E1E778
:101EE000F0B40E4604990025521A2C46A9420BD193
:101EF00000EB410506EB410600239A420FD105EBAA
:101F00004201F0BCFFF793BF36F815703C4433F83C
:101F10001570E41B20F8154024140135E6E736F867
:101F200013100C4425F8134024140133E5E72DE980
:101F3000F043079CDDF828E0DDE908760239154614
:101F400084464FF6FF78A4EB020955B900EB420135
:101F50001FB1012320F812300231BDE8F043FFF732
:101F600066BF31F8024F013D4444264405EB0904A5
:101F7000A5422ABF33F8024B4FF6FF744444744421
:101F800086EA040E17FA8EF72CF8027B4FEA144EFD
:101F9000360C3F0CD9E738B502290446806838BFB3
:101FA00002210D4618B12368B1EB930F07D96900E0
:101FB000FEF759FA2368A06065F39F03236038BDDC
:101FC00038B504460C20FEF733FA2368227805461C
:101FD00002F00102C3F39D0023F0030313432B60BF
:101FE00063686B604000FEF723FAA8602268A1686E
:101FF000C2F39D02520026F0A7FC284638BD994244
:1020000010B511D313D800EB410002EB410209B91E
:10201000084610BD30F8023D32F8024D1B1B002B64
:1020200002DB04D10139F2E74FF0FF30F1E7012084
:10203000EFE710B5044638B18068FEF721FA204674
:10204000BDE81040FEF71CBA10BD70B505460C4641
:102050000221FFF7A0FF002C2B78B4BF0122002241
:1020600062F30003AA682B70B4BF614221460123CA
:1020700088B2090C14461E4622F8020B03F1010334
:10208000F6D16E60208070BD0023C0E9003383600C
:10209000704728B103789B0702D48068FEF7F0B937
:1020A000704738B504460D464968FFF774FF2A7833
:1020B0002378A06862F3000323706A686260A968ED
:1020C0005200BDE8384026F03FBC0A4629B90178E5
:1020D000426062F3000101707047FFF7B6BF08B5B8
:1020E000FFF7D2FFBDE80840FFF7EFBF920042F0D4
:1020F000020210B402600022C0E901215DF8044B25
:102100001946FFF7E2BFF8B59DF8187014461D4652
:1021100004210646FFF73FFF22462B4627B1002D3C
:102120000CDA624265EB4503317867F300013170E8
:102130000021716052EA030102D1F8BD0027F3E7E4
:10214000D6E901104C1C746020F81120120C42EAF0
:1021500003421B0CEEE72DE9F3418DED010A019DD1
:102160000378EA0F62F300030370C5F30F4313F41F
:10217000FF4380460BD198F8003023F0010388F824
:1021800000300023C8F8043002B0BDE8F081B3F598
:10219000FF4FF0D0C5F3C754A4F17F06002EEADB51
:1021A00005D1012102B0BDE8F041FFF74EBF162E68
:1021B000C5F31605A4F16F07D8BFC6F1170645F49D
:1021C00000054FEA2717D5BFF540963C0026093693
:1021D000D4BF344624113946C8BF06F00F06FFF7B6
:1021E000DAFEC8F804702CB1D8F8080062000021AB
:1021F00026F0EEFB4EB1D8F8083005FA06F223F8C7
:102200001420C6F11006F5400134A742BCD0D8F81E
:10221000083023F814502D0CF6E72DE9F843044656
:102220008F18C2F35B020D46511C9846089EFFF7BB
:10223000B2FE237868F300032370AC4600221FFA35
:1022400086FEBC456046626002D3401BBDE8F88351
:102250000178A1F13003092B0CF1010C05D9A1F192
:102260004103192B12D8A1F13703B342EDD2A06874
:1022700090468146B8F1000F0FD100EB420113B137
:1022800020F812300231091A4A10DAE7A1F161038D
:10229000192BDAD8A1F15703E7E7B9F800100EFBC4
:1022A000013329F8023B08F1FF381B0CE2E7F8B5CF
:1022B000044615461E4641B3531E1E444FF0FF37D9
:1022C000E9000F3109092046FFF765FE2378002158
:1022D00023F0010323706160CDB10F294FF000039B
:1022E0000BDC32788A401343013D9BB201F10801B7
:1022F0003E4402D00F29F4DD10216268501C60605A
:10230000A068103920F81230E6E70127D8E7D4E9B1
:10231000011000EB4101FFF78AFD6060F8BD38B5A0
:1023200005780B7805F0010203F001030446981AC2
:1023300008D1D1E90132D4E90110FFF760FEEB07C3
:1023400048BF404238BD884210B5044601D0FFF76F
:10235000A8FE237823F00103237010BD884210B536
:10236000044601D0FFF79DFE63683BB12378C3F3B9
:10237000000282F0010262F30003237010BD884264
:102380001FB5044601D0FFF78CFE626862B90121D7
:102390002046FFF700FEA2680123138063602378C4
:1023A00043F00103237010E02378D9070FD523F001
:1023B0000103237001230093A168ADF80E30084695
:1023C0000DF10E03FFF78CFD606004B010BD511CD1
:1023D0002046FFF7E0FD01230093D4E90121ADF889
:1023E0000E3008460DF10E03FFF750FD6060D6E792
:1023F0004B682DE9F04705460E46144603B12AB94D
:1024000031462846BDE8F047FFF74BBE02F10F0109
:102410004FEA111803EB1111FFF7BDFDD6E90123B7
:1024200008EB0207A96807F1004014F00F0400F15F
:10243000FF3008BF10244FEA400901EB400003EBD6
:102440004203114686464FF0000CC4F1100409BB4C
:102450006FF001035A4383182CFA04FCC8F10108F9
:1024600020F802C003EB48034FEA480218465242E4
:1024700026F0AEFA09F1020903464B4417B133F8CE
:10248000022D9AB16F6032782B7862F300032B70C3
:10249000BDE8F08733F802AD4AEA0C0C2CFA04FAD6
:1024A0002EF802A94FEA0C4C0139D0E7013FE5E7CD
:1024B0002DE9FF410D4649680646144601B132B97F
:1024C0002946304604B0BDE8F041FFF7EABDFFF70A
:1024D00062FDB768D5F808806A68234641463846E9
:1024E000FFF7B1FC70602978337861F30003337033
:1024F000DB0702460AD500236968ADF80E302009D3
:10250000994201D0834204D181420AD804B0BDE887
:10251000F08138F813509DB101238142ADF80E309F
:1025200012D904F00F04012338F8101003FA04F450
:10253000013C214206D1BDF80E30002BE6D003E06D
:102540000133DDE7ADF80E30012312B93B80736033
:10255000DCE7009339460DF10E033846FFF796FC91
:102560007060D3E773B514460D46D2E901320646D2
:10257000D1E90110FFF743FD0028A2BF23462C46F6
:102580001D4623782A7861685340DB071AD401314D
:102590003046FFF700FD6B680093D4E90121AB687A
:1025A000B068FFF773FC706023783278C3F30003E0
:1025B00000280CBF002303F0010363F30002327014
:1025C00002B070BD3046FFF7E6FC6B680093D4E9BB
:1025D0000121AB68B068FFF783FCE4E7F7B5144668
:1025E0000F46D2E901320546D1E90110FFF707FD98
:1025F0000028A2BF23463C461F4623783A786168EC
:1026000083EA0203ACBF00260126DB0719D501319E
:102610002846FFF7C0FC7B680093D4E90121BB6822
:10262000A868FFF733FC686028B1237803F0010045
:102630000EB180F001002B7860F300032B7003B023
:10264000F0BD2846FFF7A7FC7B680093D4E9012181
:10265000BB68A868FFF744FCE5E72DE9F04F154695
:102660004A686B689A4224BF2B460D460C4628BF29
:102670001C462B786968DB0785B0064622D4237890
:1026800013F001071ED1FFF786FCD4E9011CB068E6
:10269000AD683B4699420CD100EB4101FFF7C7FB07
:1026A00000237060327863F30002327005B0BDE839
:1026B000F08F35F813203CF81340224020F8132007
:1026C0000133E7E701313046FFF765FC2F782378C7
:1026D000D5F804C0B068A26887EA0301C94301F0D5
:1026E000010E41F3000189B207F0010847F300072A
:1026F0000191B9B20291A968A1F1020B616803F0DE
:10270000010943F300039BB2A1EB0C010093674660
:10271000824603918FB900EB4C01BEF1000F03D04C
:10272000012320F81C300231FFF781FB7060227812
:102730002B78C2F300021340B4E73BF8021F029B60
:102740005940039B013F8844D919B9429BBF32F8D5
:10275000021B009B009959408944019B08EA09012A
:1027600059401EFA81F12AF8021B4FEA19494FEA33
:1027700018484FEA114ECDE72DE9F84F14464A6844
:1027800063689A4224BF23460C460D4628BF1D4667
:1027900023786168DB07064632D42A7812F00107F5
:1027A0002ED1FFF7F8FBD5E9013EA1686468D6F8A1
:1027B00008C0E41A3A46934213D101EB43010022C8
:1027C0000CEB4303944215D103EB4403A3EB0C033E
:1027D000581000223378706062F300033370BDE854
:1027E000F88F31F812003EF8125028432CF81200EE
:1027F0000132E0E731F8120023F812000132E1E77C
:1028000001313046FFF7C7FB22782B786168B0684A
:10281000A468D5E901E702F0010803F0010942F3D9
:10282000000243F3000392B29BB2A4F1020C0D46E6
:1028300083464FF0010AAEEB010E2DB900EB4101CA
:10284000FFF7F5FA0122C5E73CF8024F013D54407D
:10285000A0440EEB0504A5422ABF37F8024B1C46E4
:102860005C40A14448EA0904E4431AFA84F42BF8D2
:10287000024B4FEA19494FEA18484FEA144ADCE77D
:10288000F0B514464A6863689A4228BF23460D464D
:1028900024BF0C461D4627782B7861685F4017F0EF
:1028A000010785B006463BD1FFF775FB237813F08F
:1028B000010329D1D5E9015C6268B068A768521BA1
:1028C0009D4212D100EB450107EB450700239A42D8
:1028D00014D101EB4201FFF7AAFA002733787060A8
:1028E00067F30003337005B0F0BD37F813103CF800
:1028F0001340614020F813100133E1E737F813402B
:1029000021F813400133E2E7CDE9027701976B68C4
:102910000093D4E90121AB68B068FFF708FBDCE75E
:102920000131FFF738FB2B78DB4303F001030393FE
:102930002378DB4303F001030127029301976B68BF
:102940000093D4E90121AB68B068FFF7F0FAC5E75E
:102950002DE9F04F4B6885B004460E4615460BB185
:10296000536843B9237823F0010323700023636085
:1029700005B0BDE8F08F81422DD1FFF721FBA542C4
:10298000064607462ED06B68716820461944FFF74B
:1029900002FB2268A068C2F39D025200002126F0CB
:1029A00017F8B368D4F808E0D6F804900193AB6840
:1029B000029300226B6803930EEB4908F44611461C
:1029C000039B934233D0DDF804B0CDF80090ACF116
:1029D000020000231AE0824206D1FFF7F1FA054611
:1029E0000746D0E70546CEE70027CCE730F802AF30
:1029F00053441946029B3BF802AB33F8123003FBF9
:102A00000A130099038001391B0C009100990029D9
:102A1000ECD14146881C13B1A8F800300146A1EB67
:102A20000E0149100CF1020C01328046C8E76160CA
:102A30002A78337853402278384663F300022270B4
:102A400005B0BDE8F04FFFF7F4BA4B6870B5054626
:102A5000144613B11378DA0706D52B7823F0010357
:102A60002B7000236B6070BD636823B9BDE87040B4
:102A70000121FFF7EABA0846FFF7A2FA0646204608
:102A8000FFF79EFA012104462846FFF7DEFA636845
:102A900083B1A3681B88DB0704D532462946284644
:102AA000FFF756FFD4E9012101230846FFF7CBF9D0
:102AB000606038B93046FFF7BCFA2046BDE8704088
:102AC000FFF7B7BA324631463046FFF741FFDEE73F
:102AD0002DE9F04F0C4651688FB093460131054601
:102AE0000393FFF758FADBF80420A868013252007C
:102AF000002125F06DFF2B78002623F001032B70B9
:102B00006E60DBF8041020460131FFF744FA5946A5
:102B10002046FFF7C6FA039BD4F80890D4F8048047
:102B2000D3E901370293AB6804933A46029B4146CE
:102B30004846FFF764FA002835D1049A6060012303
:102B400013806B6023786168C3F3000200290CBF17
:102B5000002202F0010262F30003039A23709BF843
:102B6000003012785340DB0740F1FC806B682A7814
:102B7000003B18BF012363F300022A70002900F014
:102B8000F1800BA84FF0FF31FFF7A9FA0BAA2946F5
:102B90002846FFF7E7FC039A214620460FB0BDE820
:102BA000F04FFFF7DFBC01DA6E60CBE7029B03F169
:102BB0000042013A4FEA420A37F8121033460E0437
:102BC00003F101004ED59BB209EB48014FF0000C18
:102BD00008F10100C3F1100629F818C001916060E6
:102BE0000231CE4605968E4540D337F812209A40E2
:102BF0000592029A012A09D907EB0A02C3F11001D2
:102C000032F8022CCA40059911430591029A801AA4
:102C10006860049A00F10040013802EB400207921C
:102C20000AF102020992BA1E0892D4F804A0029A8C
:102C3000524529D30AF1004A0AF1FF3A09EB4A0A40
:102C40000022C3F11000D14573D96FF000416B68C9
:102C50002BB104985A1830F81220002A73D06FF064
:102C6000004175E0490089B20346A8E7BEF800803C
:102C700008FA03F64CEA060C059E2EF802CB28FA59
:102C800006F81FFA88FCAEE7019A0198118832F81D
:102C9000022C42EA01420599B2FBF1F20999411A6C
:102CA00006910899069F00200E4686460199B94272
:102CB0000DD809880844A8BB079921F80229019A70
:102CC0000791023A01920AF1FF326260ADE736F8ED
:102CD000021FB7F80080994041EA1E4E1FFA8EF19C
:102CE000514318FA80F81FFA81FC090CA8EB0C0C70
:102CF000C1EB204127F802CB01EB2C40D6E738F896
:102D0000021F994041EA1E4EBCF80010394411FAE6
:102D10008EF12CF8021B0F0C01996145EFD8384455
:102D2000013AC8E70027DDF82080DDF818C0BE466C
:102D3000F2E7BAF8001041FA03F6324381402AF86C
:102D400002298AB27FE7013B6B6080E7013B636049
:102D50006368002B3FF4F6AE5A1839F81220002AA7
:102D6000F4D0EFE60FB0BDE8F08FF0B51F464B682A
:102D700085B004460D4616464BB11378DA0706D4E3
:102D80007B68012B0BD1BB681B88012B07D12378F3
:102D900023F0010323700023636005B0F0BD01211F
:102DA0002046FFF752F97368002BF6D02846FFF74C
:102DB00007F905463046FFF703F9064601A8FFF775
:102DC00063F97368B3B1B3681B88DB070AD52A4679
:102DD00021462046FFF7BCFD3B462246214601A87E
:102DE000FFF776FED6E9012101230846FFF72BF80D
:102DF000706058B901A8FFF74CF92846FFF719F998
:102E0000304605B0BDE8F040FFF713B92A46294621
:102E10002846FFF79DFD3B462A46294601A8FFF7B5
:102E200057FECEE710B5D0E90121034601EB42027F
:102E30000020914204D31B78DB0748BF404210BDFD
:102E400032F8024D44EA0040F3E730B5D0E90124FE
:102E5000002304EB4202944206D30278D20748BF13
:102E60005B420B60012030BDB3F5004F04D232F855
:102E7000025D45EA0343EEE70020F4E72DE9F04761
:102E80000546D1B19818D5E901840026A4F1020EB7
:102E90004FF0010C374603EB0209B8F1000F0ED1D9
:102EA000B9B3C21A18462B7813F0010FBDE8F047EA
:102EB00014BFFF21002125F08BBD1846E3E73EF843
:102EC000024F103744EA064695F800A0072F0AF093
:102ED000010A02DC08F1FF38DFE7B4B2BAF1000FF3
:102EE00006D0E4435CFA84FC1FFA8CF4CCF3072C84
:102EF000E4B249B100F1FF3A00F8014C53450BD060
:102F0000083F360A5046DFE782460AF8014BCA45B9
:102F1000F5E713441A1AC6E7BDE8F087D0E9013295
:102F20009FED0C0A9FED0C7A02EB43039A4205D306
:102F30000378DB0748BFB1EE400A704733F8021D43
:102F400007EE901AF8EEE77AE0EE077AB0EE670A3D
:102F5000ECE700BF00000000000080472DE9F84FBB
:102F600044689DF828B00B9F81468A4615461E4648
:102F70009CB982B1551E3A4615F8011F134639B95E
:102F800030221A70002203F8012FD81BBDE8F88FF9
:102F900002F8011BF0E73B46F2E764002046FDF72C
:102FA00047FAD9F808108046224625F0CDFC3A466B
:102FB0003B4608EB0401A6F13A008C1E0026A04512
:102FC000A4462CD93036392E1C4688BF361804F852
:102FD000016B4646B142B4462CD8BBF1000F40D13C
:102FE0004046FDF74DFA5DB1284625F02BFD2A1825
:102FF000611E1346AB4236D8954288BF0020044478
:1030000099F80030DB0744BF2D2304F8013B3B4611
:10301000621E9A422CD800232370E01BB6E7BCF84E
:1030200000C04CEA0646B6FBFAFC24F802C90AFBCB
:103030001C66C4E7BCF800C00236BCF1000FC9D062
:10304000BBF1000F0BD00026A4EB020CBCF1030F68
:1030500002BF9C1C83F801B02246002EC0D123463B
:10306000ABE70126F0E713F8016D01F8016FC1E746
:103070001978107803F8010B02F80119C9E7D0E9B3
:10308000023293423DBF5A1C826018784FF0FF30E5
:103090007047036810B5044613B14068FDF7F0F9B6
:1030A0002046BDE81040FDF7EBB90000F8B5054635
:1030B00010200C461F461646FDF7BAF9054B8460F2
:1030C000C0E900743444C4606B60034B2860AB609B
:1030D000F8BD00BF7F3000089330000802690A2A5B
:1030E00010B5044635D1836A013383620123A26996
:1030F000E36263696261226F2361002A31D0616EED
:103100008A423FBF501CA16E20678A5C28BF002204
:10311000A2613BB9E2692261226A6261626AA261CC
:1031200063662367D4E905230D2A07D10A22934257
:10313000626103D1D4E901039847A061A369013317
:1031400006D163695A1C03D00A2B1CBF0A23A36152
:1031500010BDC36A092A04BF073323F007030133F4
:10316000C5E7D4E901039847A061DBE70169272996
:10317000024601D0222912D1012024E05369272BD5
:10318000FAD0222BF8D0722914D1662B16D190696F
:103190002728F1D0A0F12203584258417047A1F1ED
:1031A0006200132804D8084B034113F00100E5D056
:1031B00000207047662904D1722B00E0622B02D1F7
:1031C000E5E76229F8D07047EEFFF6FF70B50446D8
:1031D0000D4600262069431C01D1304670BD0A28E7
:1031E00008D115B1636B002BF7D02046FFF776FFAF
:1031F0000126EFE7FEF790FD18B12046FFF76EFFBE
:10320000E8E72369232B08D12046FFF767FF2369EE
:103210005A1CDFD00A2BF7D1DCE75C2BDDD16369C8
:103220000A2BDAD12046FFF759FFE6E72DE9F04FE8
:10323000436E85B00446A3B1036F93B92921603072
:10324000FEF70CF92369E36163692362A369636292
:10325000A36E1A7822615A7862619B78A361032376
:103260002367002161652046FFF7B0FF266BA36A44
:10327000E56A6364002EA56407DA082384F84C30FD
:103280000136266305B0BDE8F08F04D0072384F82B
:103290004C30013EF5E7002834D0636B93BB062326
:1032A00084F84C30D4E90F306FF000429918013D9A
:1032B00030F811108D42E5D019D9A16B8B4207D39C
:1032C00008314900FDF7CFF8A36B20640833A363EE
:1032D000D4E90F32591CE16322F81350236B0133F8
:1032E0002363CFE7013BE363236B013B2363E36B82
:1032F000991830F811108D42F4D3C3D0022384F80A
:103300004C30BFE725696F1C01D10023F7E7204649
:10331000FFF72CFF0746002800F0B381002384F854
:103320004C302369722B66D057D8622B5CD0662B49
:1033300068D0B1460C2300254FF0000894F84C20CB
:10334000002A72D184F84C30B9F1000F08D0204621
:10335000FFF7C4FEB9F1020F02D12046FFF7BEFE0F
:1033600023692046222B0CBF4FF0220A4FF0270A78
:10337000FFF7B4FE236953455AD163699A4557D183
:103380002046FFF7ABFE2046FFF7A8FE4FF00309EB
:1033900025B1A14904F16000FEF7A3F804F1600231
:1033A000002301922169481C00F06581B9F1010FE9
:1033B00002D10A2900F05F814B453CD3194604F144
:1033C0005000FEF7A7F801212046FFF7FFFE204638
:1033D000FFF7CCFE0028A4D154E7A3F17505D5F181
:1033E000000949EB0509A5E76369722B12D04FF07C
:1033F00001090D239FE76369622B0BD0662B0FD168
:1034000005237CE76369722BFAD03D464FF0010932
:103410000C2391E7B8464FF002090D2300258DE7F4
:10342000B8464FF001090C23F8E79A428CD029E7FF
:103430004FF00109ACE78A4562D10133514604F1EE
:1034400050000293FEF711F8029B02932046FFF70B
:1034500045FE029BA6E720460291FFF73FFE236947
:103460007B2B10D104F150000299FDF7F7FF2046A5
:10347000FFF734FE7B2104F15000FDF7EFFF2169D7
:103480007B29E8D03EE001982821FDF7E7FFD4F83A
:1034900064B000222169481C04D0EAB93A2901D05D
:1034A0007D2919D1D4E91921881810F8010C3D287B
:1034B00009D1A2EB0B02594404F15000FDF728FF9B
:1034C000636E013B636601982921FDF7C7FF0198F0
:1034D0002C21FDF7C3FFCDE721F020005B280AD1A6
:1034E000013201980292C9B2FDF7B8FF2046FFF7FA
:1034F000F5FD029ACEE75D2808BF02F1FF32F0E742
:10350000002DBDD15C2940F0B08020460291FFF72C
:10351000E5FDD4F810B00299B8F1000F05D004F120
:103520005000FDF7A2FF59466FE0BBF1780F09D8B4
:10353000BBF15B0F08D8BBF1220F44D023D8BBF1FD
:103540000A0F64D05C21EAE7ABF15C021C2A67D861
:10355000DFE802F0396666666685266666662E6670
:103560006666666666662A6666660F6628302C663C
:103570005F000D2194F84C300C2B72D104F15000F7
:10358000FDF773FF43E0BBF1550F13D0DAD8BBF161
:10359000270F18D0BBF14E0F42D120480AF00EFC85
:1035A0000821E7E70921E5E70A21E3E70B21E1E745
:1035B0000C21DFE794F84C200D2A06D15C2104F1A0
:1035C0005000FDF752FF5946D4E7BBF1750F14BF09
:1035D0000823042303F1FF3B002120460291FFF75B
:1035E0007DFD226903921046FEF7B4FB002800F02F
:1035F0005C810299039A090110460291FEF7EAFBE9
:103600000299BBF1010B0144E7D24B1C20D10023EE
:103610001BE70223DEE700BF70A9030879A90308AE
:10362000ABF1300107298DD84FF0030B08E020469D
:103630000291FFF753FD22690299303A02EBC10172
:103640006269303A072AE0D8BBF1010BEFD1DCE721
:10365000B1F5881F8ED3012384F84C30D7E70721BA
:1036600088E7FF29F7D80D2BF5D1C9B204F1500036
:10367000FDF7F4FECBE74B453CBF032284F84C201A
:103680009CE62846FEF752FBD8B920695F2818D07F
:103690007F2816D8FEF754FB002856D123692E2B1D
:1036A0004ED0844D00262F781FB12369BB4240F0D5
:1036B000A4802046FFF712FD002F40F0A6800123D2
:1036C0001DE6092384F84C3004F15005217C28467E
:1036D000FDF7C4FE2046FFF701FD2069421C1BD107
:1036E0002846FDF7ACFE744F0646002557F8041B2C
:1036F000304625F0B5F900281CD10F35EDB2122D5A
:1037000084F84C507FF4BEAD6C4BD3F8F831002BED
:1037100014BF0F231123F2E5FEF708FB0028D5D1D3
:1037200020695F28D2D07F28D0D8FEF709FB002877
:10373000CCD1D5E7FFF6A6AD0135242DD6D1A1E534
:103740006069FEF7FDFA0028ABD021692E292AD145
:103750000B2384F84C30002504F150063046FDF769
:1037600084FE2046FFF7BAFC0B272069431C3FF478
:1037700089AD4DBB20F02003452B25D16521304676
:1037800084F84C70FDF771FE2046FFF7A7FC216915
:103790002B2901D02D29E8D13046FDF766FE2046C1
:1037A000FFF79CFCE1E70A23302984F84C30D2D1A2
:1037B000636943F02003623B162BCCD8404DDD40BB
:1037C00015F00105C8D1C6E7FEF7B0FA28B12169A6
:1037D0002E290DD184F84C70DEE72069FEF7B0FA8F
:1037E0000028F4D123692E2BF1D05F2BD7D049E5E7
:1037F00021F020034A2BCFD1ECE7652F01D0632FB6
:1038000000D10135013601354DE7212F08D123695B
:103810003D2B7FF454AF2046FFF760FC3A236EE562
:103820002E2F0FD123692E2B02D163692E2B01D0AD
:103830005D2364E52046FFF751FC2046FFF74EFC70
:103840000E235CE50335334615F8027C632F18D050
:10385000652F16D01B4AD35C84F84C30553BDBB245
:10386000052B3FF60FAD012202FA03F313F02A0FE6
:1038700018D113F0150F3FF405AD636B1344636368
:1038800000E515F8012C2169914206F1010607D1E6
:103890002046FFF723FC3346652FDBD00235D3E704
:1038A000632FFAE7636B013BE9E7012384F84C30AF
:1038B00001465FE62BA90308080004084800002021
:1038C00001204000980004087FB5064601AD742031
:1038D00085E80E00FCF7ACFD0446034695E80700BA
:1038E00043F8046B83E8070001236FF00102C4E989
:1038F0000A3200250A22C4E90E23C4E90C5514201B
:10390000FCF796FD2021206404F15000FDF729FD0D
:10391000294604F16000FDF724FD236C20461D803C
:10392000C4E905552561FFF7D9FB2046FFF7D6FB13
:103930002046FFF7D3FB2046FFF778FCA36C012B52
:1039400018BF0723204618BF84F84C3004B070BD60
:1039500030B585B001AC05462046FFF7A7FB94E8DB
:103960000E002846FFF7B0FF05B030BD30B585B07A
:1039700001AC0146054620461EF056FD2846FDF7DF
:10398000D7FB94E80E00FFF79FFF05B030BD10B5E0
:10399000044690B1C3684068984704F15000FDF7B1
:1039A00009FD04F16000FDF705FD206CFCF768FDE2
:1039B0002046BDE81040FCF763BD10BDD0E90432DD
:1039C000013B036152F823007047036942695B1AA7
:1039D000013B52F823007047F8B5446A06460D468D
:1039E000B4B1D4E900030B44834222D90831002248
:1039F00001442046FCF742FD0246B8B96168204602
:103A00000831FCF73BFD63682360336A636034620E
:103A1000802D2F4638BF802707F10800FCF708FDEE
:103A20000023076043600446706202E023682B4471
:103A3000236060680544656008342044F8BD38B5EB
:103A40000D460C211446FFF7C7FF4FF49D72C0E9E5
:103A50000124056038BD38B5D0E903329A420446E6
:103A60000D4608D3103399004069FCF7FCFCE3686D
:103A700060611033E360D4E90432591C216142F8DB
:103A8000235038BDF8B504461D46D0E900038342F3
:103A90000F46164608D31030C100A068FCF7E3FCBF
:103AA0002368A06010332360D4E90103421C6260E4
:103AB00053F8301067F3170143F8301003EBC002DE
:103AC000D6705560F8BD10B48469CAB20023616C29
:103AD0005DF8044BFFF7D6BF10F001021CD110F0C7
:103AE00003030CD000F00F03062B15D00A2B11D1C5
:103AF00000090E3803288CBF00200120704770B1E8
:103B000002793A2A08D02D2A08D18068B0FA80F0CC
:103B100040097047104670470120704718467047AB
:103B2000C20702D540F001007047830710D0030997
:103B300000F00F00062803D1D80040F002007047C3
:103B4000A3F10F00022809D8064B53F82000704754
:103B500030B103793A2B03D180687047024870472F
:103B600002487047C4000408341C04087420040888
:103B700038B505460C46FFF7AFFF38B12846FFF7CA
:103B8000CFFF0BF0E7F8031B5842584138BD2DE931
:103B9000F0410F4605461446114689B9204612F0F9
:103BA0002BFB014600F10808A4B90A46284639460D
:103BB000FFF745FF01462846FFF74DFF012007E0CC
:103BC00001392846FFF701FFFFF786FF0028E4D1FF
:103BD000BDE8F0812846FFF7F1FE0646FFF7A0FF9B
:103BE000013C48F82400002EDED0B307DCD1686A1F
:103BF00000F108039E42D7D3426813449E42D3D2B9
:103C000073681B0A0233A2EB83024260CCE7000018
:103C1000F7B5866996F84C20A2F1090305460F46D0
:103C2000042B52D8DFE803F003232B384C00D6E9ED
:103C30001510FDF7DFF9902F04460ED1C1000022C8
:103C400041F0020105F128000AF04AFC28B142685F
:103C5000D3071CD542F0010002E0200140F0020031
:103C60000146284603B0BDE8F040FFF7F4BE00224D
:103C7000D6E91510334608F075FA0246E8E70096D3
:103C8000D6E915100023012208F0EAFA0246716C09
:103C90002846FFF7D4FEE3E7D6E915100A2906D82F
:103CA000FDF7A8F930B1000140F00600D8E7FDF7B4
:103CB00073F9F7E7D6E91521064810F092FBE5E71E
:103CC000D6E9151010F062FCE0E7120142F00A009C
:103CD000C6E700BF5C1F040810F00102034604D0D1
:103CE00040F001030B600120704790B110F0030019
:103CF00010D11A793A2A0ED19B680B6013F001009B
:103D0000F1D19A0707D11868034BC31A584258419A
:103D10007047704710467047E41504080021FFF70C
:103D200027BF0121FFF724BF2DE9F04F2D2A85B0D1
:103D30000446884616461D460BD10021FFF745FE76
:103D4000C0B1870702D10379922B13D005B0BDE82B
:103D5000F08F922A20D10021FFF737FE014648B1AB
:103D6000880707D14F68FBB2952B0AD12046FFF791
:103D700025FE013DA6F11E03012B42D82F46AB467E
:103D800018E0962BF6D127F0FF07204647F0920760
:103D9000FFF714FE4F60D9E7962A08BF0135E9E71F
:103DA0001E2E21D1FFF7BDFFA8B94846FFF7B6FF89
:103DB00000B9D3460BF1FF3A6FB1013F39462046B7
:103DC000FFF703FE23696269A3EB0B03814642F808
:103DD0002300002FE4D100218A450DD1A5EB0A056F
:103DE000012DB3D0332E49E0FFF798FF0028F2D120
:103DF0004846FFF796FFDBE72046FFF7DFFD01317E
:103E0000EAE7202E1AD100212046FFF7DEFD074603
:103E1000FFF784FF78B93846FFF783FF002800F0EA
:103E20002C81FA212046FFF7C9FD204605B0BDE8E8
:103E3000F04FFFF710BE4FF48D71F3E7052E00F041
:103E4000B580A6F12303DFB2092F0DD8092B0BD8BB
:103E5000DFE813F017001700170051005100510060
:103E6000910017000A002A01922E40F06781D4E9E0
:103E7000012303EBC20313F8053C2D2B40F0FD801A
:103E800076E1691E2046FFF7A0FD01A9FFF724FF98
:103E90000028A7D0022F9ABFA6F10D07FFB2222754
:103EA000A5F10209B9F1000F09DA002D40F03B81BC
:103EB000019AD30740F13C8142F00101B5E7494640
:103EC0002046FFF782FD02A9FFF706FF002889D0F0
:103ED000222FDDF808A008D001995246384609F093
:103EE00095FD09F1FF390190DCE750460DF057FFD1
:103EF0000028F1DA76E7691E2046FFF766FD01A982
:103F0000FFF7EAFE00283FF46DAFA5F10209B9F111
:103F1000000FCADD09F1FF312046FFF756FD02A967
:103F2000FFF7DAFE00283FF45DAF49462046FFF771
:103F30004CFDC0F3071043283FF454AF45283FF42D
:103F400051AFDDF808A02538C7B250460DF027FF65
:103F50001A2F0BD80028FFF645AF01995246384674
:103F600009F054FDA9F102090190D0E71E2FF4D900
:103F70000028F2D136E700212046FFF726FD01A9EF
:103F8000FFF7AAFE00283FF42DAF01212046FFF7DE
:103F90001CFDC0F30710342818BF4038019914BF26
:103FA000C0B2022008F0AAFF01907EE7002120465F
:103FB000FFF70BFD074600285FD010F0030A04D17D
:103FC000436803F0FE03562B57D001212046FFF72C
:103FD000FCFC00F00F03022B4FD1BAF1000F4CD1C3
:103FE0003B792C2B49D1BB6803F00F02022A44D144
:103FF0001B09482B41D1FB68002B3ED09A073CD1CE
:104000001A79302A39D1D3F808B04FEA1019584636
:10401000FFF762FD68B95E495E480CF021FDA169B9
:104020003A680968054653460CF0F0FD2846FCF74F
:10403000DBF95846FFF774FD4FEAC9030A46074605
:1040400043F0020104F128000AF04AFA47604846AA
:10405000FDF78FF803785F2B204608D1FFF7AEFC01
:1040600000252046FFF7AAFCA846082682E6FFF7AF
:10407000A5FC59462046FFF7EEFCA91C8900204606
:10408000FFF7AAFC46EA05230746C0F80080436014
:1040900000F10801002D74D1962E03D13946204637
:1040A000FFF7D9FC3946C0E601212046FFF78DFC19
:1040B000002107462046FFF788FC07F00F03022B7C
:1040C0007FF490AE00283FF48DAE10F003027FF431
:1040D00089AE0379322B7FF485AE3909C900D0F857
:1040E00008902D4841F002010AF0FAF900283FF447
:1040F00079AE406802AA4FEA191108F023FE029B2C
:10410000002B3FF46FAED90707D49A077FF46AAE4D
:104110001968224A91427FF465AE039A002A7FF41F
:1041200061AE0193C1E62046FFF748FC013DBCE6C5
:1041300029462046FFF783FC014676E6962E12D1EB
:10414000D4E9012303EBC20313F8153C2D2B94D1C2
:104150002A4641462046FFF71AFD00288DD06368A5
:10416000023B6360F2E5062E02D0362E7FF43AAEB3
:104170002A4641462046FFF70AFD00287FF4E6ADB7
:104180007BE72046FFF71AFC013D41F8250081E757
:104190000BAA030824100408D0000408E41504083E
:1041A0000346006830B550B184070AD14468E5B2CF
:1041B0008D4206D100F10803200A136030BD03468A
:1041C000FBE70120F9E700002DE9F04F93B0002450
:1041D000402302904FF400700D460192CDE9053462
:1041E000FCF726F9202307908020CDE90834FCF75E
:1041F0001FF92146CDE90A050FA8CDE90D440AF0C3
:1042000039F9019B002B49D0022B0CBF3F222246DB
:104210000023696CDFF8BCA205A8FFF733FC00237C
:10422000069C002C00F05881013C0799A64F06948B
:1042300001EBC40251F83410D6785268C1F3170963
:10424000A24911F806B0A249895D632E88BF41F4E6
:10425000807107EB41070BF0300110290BF00F08BC
:104260001ED020294BD0002B00F00781B8F1020F9F
:1042700040F0F680012A40D000211BF0010F02F12E
:10428000FF3306D078880AEA0000B0F5805F08BFE7
:104290005308012B40F0E280E1B1DFE03D22B7E7B7
:1042A00002B1BBB107EB420725E0BB4637F8023B42
:1042B00003EA0A01B1F5805F0ED195F84C10C3F303
:1042C0000B03994216D105A83146FFF7A1FC2846F9
:1042D000FEF7ACFF0023A3E7531C434504D232464C
:1042E000494605A8FFF7CEFBBBF8001005A8FFF76D
:1042F000EAFBEFE701329045D7D8012390E77BB185
:1043000002F10043013B37F813300AEA0303B3F527
:10431000405F21D1002105A80392FFF79CFB039A7F
:1043200007EB4204904527D8019B83B1052E0ED19F
:10433000002105A8FFF749FB48B9012105A8FFF7AF
:1043400044FB830740D000F00F00022841D1002435
:1043500007EB4803A04656E0012ACED995F84C3029
:10436000023B052B00F2CF80DFE813F0DC00CD002C
:10437000DE00E100CD00CF00039434F8021B01EA17
:104380000A00B0F5805F16D195F84C00C9B288429A
:104390000ED1092805D1314605A80392FFF738FC54
:1043A000039A03922846FEF741FF039A0132B9E7C8
:1043B000002AA2D0D2E7531C4946324605A8FFF78F
:1043C00061FB039B198891E70028C0D003793A2B41
:1043D000BDD105A8FFF7F2FA05A8FFF7EFFA002311
:1043E0000822494605A8FFF79FFC73E733F8022D22
:1043F00002EA0A01B1F5805F10D1D2B2092A02D1D6
:10440000013408F101089F42F0D1B8F1010F1CD12D
:104410001BF0400F19D00026314610E0214605A8B8
:104420000393FFF7D2FA039B08B108F101080134A6
:10443000E9E7FFF7C3FA0136002818BF0146A64294
:1044400005A8F6D1FFF707FB44E71BF0800F04D067
:10445000002105A8FFF7FFFA013423463246C0E7E2
:10446000012A3FF44AAF12F001013FF406AFB8F160
:10447000030F7FF473AF0121FFE608EA020303F0A4
:10448000010337F8134004EA0A01B1F5805F13D144
:1044900095F84C10C4F30B04A14202F1010409D1B8
:1044A0001BB9314605A8FFF7B3FB2846FEF7BEFE51
:1044B0002246E2E72246D9E6531C4946324605A881
:1044C000FFF7E0FA214611E7BC010408440504089F
:1044D0000C01040800F0FFFF0FA809F0DFFF0E98A1
:1044E00050B1416822460831FBF7C8FF0E9B5A685D
:1044F0001A600D9A5A600D9395F84C30002B7FF49A
:104500002DAF099BABB915490FE0154915480CF0C3
:10451000A7FA6A6C2968044600230CF077FB204652
:10452000FBF762FF1049F1E710491148EFE7114925
:10453000FBE70A9B07981B680C93FBF7A1FF0A98FF
:10454000FBF79EFF2846FFF722FADDE90C01029BEC
:1045500083E80300184613B0BDE8F08F6FAA030884
:1045600017AA03080010040820AA030847AA030892
:10457000241004085AAA030810B5406800B910BDF9
:104580004468FBF77DFF2046F8E70000F8B50546D4
:1045900030200E461746FBF764FF072D04460570D2
:1045A000C66001D0012D0FD1B368C3F30F13A382EE
:1045B00008F002F8042320612783E3842020FBF71E
:1045C00037FFE0622046F8BD014B5B5DEFE700BFBF
:1045D000F405040810B50446C06AFBF751FF2046F5
:1045E000BDE81040FBF74CBF30B5058D04460022F6
:1045F000954201D8002030BDE36A03EBC200436856
:104600008B42F8D00132F3E770B504460D461646EA
:10461000FFF7EAFFC0B9E38C228D9A4208D3063334
:10462000D900E06AFBF71FFFE38CE0620633E38406
:10463000238DE26A591C02EBC300218502F8336026
:10464000002343704380456070BD034618465B6895
:10465000002BFBD1FFF7C8BFF8B544680E462CB954
:10466000F8BD042BFCD105230370F9E72546284645
:104670006D68002DF4D077683946FFF7B5FF002844
:10468000F5D00378043B022BEAD8062535700022CA
:1046900039462046FFF7B8FF0378002BE1D10570BB
:1046A0006468F4E7036A1B8B012B1EBFC3685B18A9
:1046B000C3607047836A10B504469B6F406A984791
:1046C000238B226A0133918C9BB29942238338BF9A
:1046D000938410BD038B10B5013B0383836A0446AA
:1046E000D3F88030406A984720460121BDE8104049
:1046F000FFF7D8BF2DE9F04F85B004460D46039271
:1047000098461BB1CB8A43F00803CB82039BEB8313
:10471000236ADA8A42F03002DA821B78002B46D113
:10472000A36A039AD3F8B060606A43462946B44648
:1047300005B0BDE8F04F6047DB6A03EBC60B13F82A
:104740003630053B012B1DD84FF0000917E0EB6A0E
:1047500003EBC90213F83930062B0ED1DBF8041035
:104760005368994209D1A36ABBF802201B69606AA9
:104770001F460023B8470AF1010A09F101092B8DF0
:104780004B45E4DC0136236A1A8DB242D4DCD4E90D
:104790000903BAF1000FC3D0CDF80080D3F8B440BC
:1047A000039B52462946A04705B0BDE8F08F00267E
:1047B000B246E8E7836A10B50446D3F88430406A0D
:1047C00000219847A36A606A1B6B10219847A36A6F
:1047D000606AD3F8C8300121984720460321BDE81C
:1047E0001040FFF75FBF38B5836A04465B6C406AD0
:1047F00000229847A36A606AD3F8BC5000231A4687
:104800001946A8472046BDE83840FFF7D3BF836A62
:1048100089681B6D406A002209091847836A896804
:10482000DB6B406A184710B50446084611461A4625
:10483000FFF7ACFE236A436000238360E3690BB992
:10484000E06110BD1A469B68002BFBD19060F8E731
:104850002DE9F04F87B0054600AF0C4611B9012194
:10486000116013E011F0030619D10B79682B06D102
:10487000CB681B0913608C68002CF0D0012604F073
:104880000F03022B0DD12109002EE9D0AB6A686A13
:10489000DB6A002298471C37BD46BDE8F08F002632
:1048A000EDE716B9A3681B091360A14659F8043F48
:1048B0004FEA132A09EB8A030AF1FF3BBB60C846A3
:1048C00058F8040F0009FCF749FCBB68984583447D
:1048D000F6D10BF1070323F00703ADEB030DC7F887
:1048E0000CD0E846002359F8040F3B6007F114018F
:1048F0000009FCF74AFC7A697A600146404624F0D8
:1049000023F83B687A6801339A45904418D1594698
:10491000F868FCF76FFBAB6A0146DB6A686A002245
:104920009847002EB7D00834BB689C42B3D054F8E7
:10493000041FAB6A686A1B6D002209099847F3E7F8
:104940004FF02E0208F8012BCDE731B1826801F05B
:104950000303134304BF0B68836070472DE9F041E4
:1049600007461E4659B111F0030510D14B68D8B265
:1049700090420CD14FEA13280C1D454501DBBDE8E0
:10498000F08154F8041F3846B0470135F5E7384642
:104990003346BDE8F0411847F8B504460E461146C7
:1049A0001A46002385780769837003610E4BFFF771
:1049B000D5FF6368BBB9618A51B1228A42B9A36A43
:1049C000606AD3F89C309847A36A606A1B6C98476A
:1049D000238A628A31462046FFF78CFE003D18BFCD
:1049E0000125A5702761F8BD6952000870B54378AC
:1049F000012B05460C4606D1036A0A461B8B022191
:104A0000FFF711FF2061A268216928464C23BDE809
:104A10007040FFF7C1BF70B513464278012A0546C2
:104A20000C4604D10A460721FFF7FDFEA061A669E6
:104A3000E268284646233146FFF7AEFFB08A70BDD4
:104A4000024B89689D22FFF789BF00BF715700089C
:104A5000024B89686B22FFF781BF00BF0D7300080E
:104A600038B543680D46044611464BB905480BF06E
:104A7000F7FF294660602046BDE83840FFF765BF74
:104A800038BD00BF24100408014AFFF7E9BF00BF8A
:104A900073AA03080B79092B70B50CBF858AC58AE8
:104AA0004FF6FF739D42044602D1064AFFF7D8FF36
:104AB000218B628BA36A606A5B6F8A1A2946BDE804
:104AC0007040184780AA030838B5054679B101F04F
:104AD0000F03022B0DD10C09204609F03BFB0028E7
:104AE00006DA0649064822460CF050F868600020B5
:104AF00038BD044AFFF7B4FFF9E700BF99AA0308DD
:104B0000B80F04089EAA030870B51446054612782B
:104B10000E4683B132B1032A04D0104ABDE870407A
:104B2000FFF79EBF032626706168286AFFF78DFD98
:104B300000B1067070BD62B901232370006A21467E
:104B4000FFF78AFD2378012BF4D1054A3146284628
:104B5000E4E7062AEED0034AE0E700BFA5AA03086F
:104B6000B2AA0308BFAA03082DE9F3414378012B39
:104B700004460D461AD10B79102B0CBF4FF00108DB
:104B80004FF0000808D0036A1B782BB9114A02B015
:104B9000BDE8F041FFF764BF01AA6D2105F10800EF
:104BA000FFF7FEFA00260746B74202D102B0BDE881
:104BB000F081019B206A53F8261000220909FFF7B3
:104BC00023FD4346024629462046FFF79DFF013656
:104BD000EAE700BFC6AA030810B4026A0446407898
:104BE00001280B4604D15DF8044B104602F0FFBDCE
:104BF000A16A606A5DF8044B203102F007BE10B470
:104C000004460B466278006A012A03D15DF8044B22
:104C1000FFF7FABCA16A02461031606A5DF8044BE6
:104C200002F0F4BD70B505460C4600292ED0CA0727
:104C300006D5836A5B6B4910686ABDE87040184707
:104C40008B0717D004F00F04022C4FEA11110AD081
:104C5000062C0CD0062919D0836A406A1B6BBDE86C
:104C60007040C9B21847BDE87040FFF7C8BF836AFB
:104C70009B6BE1E7836A0968DB68406A98472279A1
:104C8000034B214653F822302846D6E770BD00BFBB
:104C9000FC0504082DE9F74F04460D4616461F464D
:104CA0002846FFF73BF820B186BBA36A39469B6EC6
:104CB00061E02846FFF735F808B13EB3F5E765B186
:104CC000AB070AD16A68D3B2202B59D012D81E2B59
:104CD0004FEA122B14D01F2B2ED029462046FFF767
:104CE000A1FFA36A606ADB6E3A46314603B0BDE8B5
:104CF000F04F18472D2BF0D1AB68002BDDD1D3E757
:104D0000E6B1043505EB8B0B5D450DD103B0BDE875
:104D1000F08F5AF8041F019243462046FFF7BAFF6E
:104D200009F10109019A17E055F8041F3B46324684
:104D30002046FFF7AFFFE7E7002EE2D0D4F80C8063
:104D400008F10103E3600BF1FF3305F1040A4FF0B2
:104D50000009009386F00102009B4B45D9DC0BF162
:104D600001013B4655F8211032462046FFF792FFDD
:104D7000A36A9B6A4146606A03B0BDE8F04F1847DA
:104D8000AD6886F001068BE738B5026A1278072A0B
:104D900004460B4606D0022A04D0BDE83840144A27
:104DA000FFF75EBE9D6885B9A36A606A1B6B102120
:104DB0009847A36A606AD3F8C83000219847204614
:104DC0000121BDE83840FFF76DBCAB070BD12B7953
:104DD000AF2B08D12046A968FFF724FF2046BDE885
:104DE0003840FFF7E7BC29462046FFF71BFFE0E706
:104DF000DCAA030870B54378CE68012B044615463B
:104E000006D1036A0A461B8B2946FFF70CFD706129
:104E1000002371691A462046FFF76CFCF1682046B2
:104E2000FFF700FF062D05D1A36A606AD3F884302E
:104E300000219847A36A606AD3F8B8500023AC46B3
:104E40001A46BDE870400121604738B50C4605465A
:104E5000C968FFF7E7FEA1682846BDE83840FFF7BC
:104E6000E1BE0B79342B70B504460D4610D189682C
:104E7000FFF7D8FEED68AD6885B9A36A606A1B6B61
:104E800010219847A36A0422D3F89C3002211AE02B
:104E9000836A406A1B6B10219847ECE7AB071FD170
:104EA0002B799A2B13D1A36A606A1B6B1021984748
:104EB000A9680029E6D02046FFF7B4FEA36AD3F81C
:104EC0009C3004220321606ABDE8704018479B2B88
:104ED00006D1A9682046FFF7A5FEEB689968E8E7C8
:104EE00029462046FFF79EFECCE710B504468968A8
:104EF000FFF798FEA36A606ADB6CBDE810400021F2
:104F0000184700002DE9F7438D68044616465DB941
:104F1000002A75D0836AD3F89C3002222946606A41
:104F200003B0BDE8F043184715F0030740F08A804E
:104F30002B79372B13D132B1836A406AD3F89C3076
:104F400002220121984720462946FFF76BFEA36AFB
:104F5000606AD3F8A03003B0BDE8F04318479F2B38
:104F600070D1EB681A79A12A5AD1A22101AA03F1C2
:104F70000800FFF715F9A968804621B38B0722D1F5
:104F80000B79372B1FD136B1A36A411CD3F89C3063
:104F9000606A02229847A9682046FFF743FEA36A89
:104FA000606AD3F8A03098474FF00109474510D107
:104FB000B9F1000F24D1A36A606AD3F89C300322B0
:104FC000791C98471CE02046FFF72CFE4FF00009A3
:104FD000ECE7019B53F82710A9B18E0713D10E7986
:104FE000A6F13700464246412046FFF71BFEB9F1C5
:104FF000000F11D04EB9184A29462046FFF730FD60
:1050000003B0BDE8F0830026EEE7A36A606AD3F838
:10501000A03098470137C9E7002EFBD00F4AEBE7D5
:10502000AB685BB19A0709D11B79372B06D10422F3
:10503000294603B0BDE8F043FFF7DCBE0522294650
:105040002046F6E729462046FFF7ECFDA36A032237
:10505000D3F89C30012162E7E7AA0308F8AA030805
:105060000122FFF74FBF70B50D46C9680446FFF730
:10507000D9FDA968A36A606AD3F89430C1F3071117
:10508000342918BF4039BDE8704014BFC9B20221AD
:105090001847F8B54F680C4689680546FFF7C2FD0A
:1050A0003F0A0C3400260236B74204F1080400DC43
:1050B000F8BD54F8041C2846FFF7B4FD54F8081C4A
:1050C000AB6A686AD3F8983009092539C9B298479C
:1050D000E9E72DE9F0410C464E6854F8081F0546F3
:1050E000FFF7A0FDA6F10D085FFA88F8360A012740
:1050F000B74201DBBDE8F08154F8041F2846FFF7F2
:1051000091FDAB6A686AD3F89830414698470137F9
:10511000EEE72DE9F0414E6804460D46360A8968EF
:10512000FFF780FD032E83BFD4F80C8008F1010344
:10513000E3604FF0000801277B1C9E4222DC032E17
:1051400055D9E568606A6B1CE360A36A29469B6ECB
:105150009847A36A606A9B6A41469847A36A606A57
:105160009B6801219847A36A606A1B6E9847A36AEF
:10517000606ADB6D9847A36A606A9B6A2946BDE84E
:10518000F0411847296920460237FFF74BFDB74227
:1051900007DAA36A606A5B6D9847A36A606A5B6E10
:1051A0009847EB68A26A606AD2F8982003F00F0172
:1051B0000A2911D1C3F30713262B1ABF353BD9B2E5
:1051C00006219047B74205DAA36A606A1B6F424620
:1051D000002198470835AFE71979852901D1322197
:1051E000EFE79B680BB90721EBE73321E9E7BDE85F
:1051F000F08110B504468968FFF714FDA36A606A60
:10520000D3F89430BDE81040032118472DE9F0474A
:105210000D46D0F80C8055F8046F5FFA86F9A9F1B5
:105220001E03D3F1000949EB030908F10103044609
:10523000C360360A0027B74206DBA36A606A9B6A2E
:105240004146BDE8F047184755F8041F204601378E
:10525000FFF7E8FCB742F0DAA36A606A1B6F4246C8
:1052600049469847E7E7000001F00F03022B70B5AD
:10527000044612D00B79492B09D0483B082B18D88B
:10528000DFE803F0081707171717170507000123B2
:10529000A37070BD8E680D6975B9A378002BF8D125
:1052A000638A002BF5D020461D4ABDE87040FFF709
:1052B000D7BBD1E90265EFE7A3783BB3238A01337B
:1052C0009BB2012B23820ED1618AD4E90903D1B1AB
:1052D000D3F89C3000229847A36A606AD3F89C30C8
:1052E00002220021984729462046FFF79BFCA36A2B
:1052F000606A9B6B31099847A36A606AD3F8A03053
:10530000BDE8704018471B6C9847E5E7638A013396
:10531000638229462046BDE87040FFF783BC00BF8A
:1053200003AB03082DE9F041C568D1F80C800E46A7
:10533000AB1C04460022D8F80810C3602B46FFF7C8
:10534000A9FCB1682046FFF76DFCA36A606A9B6EFA
:105350006F1C39469847A36A606A9B6A294698473A
:10536000A36A606A9B684FF0FF319847D8F80C1029
:105370002046FFF757FCA36A606A9B6A3946BDE87E
:10538000F04118472DE9F047C668D0F814A0B0F8EE
:105390001A908682B31CC36006F10108038BA0F843
:1053A00016800446438388680D46FEF7B7FCF8B9BB
:1053B000E768A8687B1CE360FEF7B3FC20B9A36A2A
:1053C000606A9B6E41469847A36A606A9B6A394649
:1053D0009847E9682046FFF725FCA36A606A9B6A44
:1053E00041469847A9683B4601222046FFF752FCF8
:1053F0002969C4F814A02046A4F81A90FFF712FCFB
:10540000A36A606A9B6A3146BDE8F04718472DE9F8
:10541000F347C668731CC360044688680D46FEF7F0
:105420007DFC0246E8B9E768A9687B1CE36020467A
:105430003B46FFF72FFC2046E968FFF7F3FBA8681F
:10544000FEF76FFCD8B92B690BB96B6923B1A36A5E
:10545000606A9B6E31469847A36A606A9B6A3946C8
:10546000984701AA712105F11000FEF799FE002767
:1054700081464F450BD169692046FFF7D3FBA36AEC
:10548000606A9B6A3146984702B0BDE8F087019B8D
:1054900053F82780D8F80800FEF740FC0246F8B918
:1054A000D4F80CA0D8F808100AF10103E3602046F4
:1054B0005346FFF7EFFB2046D8F80C10FFF7B2FB7E
:1054C000D8F80800FEF72DFC0028D8D1A36A606A3E
:1054D0009B6E31469847A36A606A9B6A514698471B
:1054E0000137C6E7184B2DE9F041D3F8F8710446AF
:1054F0000D463FBBC6688968731CC36001223346F2
:10550000FFF7C8FBA36A606A5B691F210122984705
:10551000E96851B12046FFF785FBA36A606AD3F8BA
:10552000B8503A463B460121A847A36A606AD3F8BF
:10553000C43001219847A36A606A9B6A3146BDE87E
:10554000F0411847BDE8F0814800002070B58D6833
:1055500004463DB9836AD3F8C4302946606ABDE881
:1055600070401847AB070ED12B795E2B0BD1A96881
:10557000FFF758FBE9682046FFF754FBA36A0221B6
:10558000D3F8C430EAE729462046FFF74BFBA36A6D
:105590000121D3F8C430E1E710B504468968FFF76C
:1055A00041FBA36A606ADB6DBDE81040184700004C
:1055B0002DE9F041026A1278072A044604D0BDE8BA
:1055C000F0411A4AFFF74CBA8D685DB9836A406AA8
:1055D0001B6B10219847A36A606AD3F8C030BDE8FE
:1055E000F041184715F003021DD12B791B2B1AD15E
:1055F000C668EF68731CC360B9683346FFF74AFB9F
:10560000A9682046FFF70EFBA36A606AD3F8C03092
:105610009847A36A606A9B6A31469847F9682046B2
:10562000FFF700FBD7E72946F9E700BF21AB0308E6
:105630002DE9F0410C46054654F8046F360A04EB98
:105640008607BC4208D1AB6A686AD3F89C30314601
:105650000022BDE8F041184754F8041F2846FFF720
:10566000E1FAEEE7896810B4034641B9826A406AFC
:10567000D2F89C400A4623465DF8044B18474A6816
:10568000120A022A0BD1CA684AB1940707D11279CB
:10569000AC2A04D15DF8044B0622FFF7ABBB5DF8E2
:1056A000044B1846FFF7C4BF2DE9F0410E460546EE
:1056B00056F8043F0F464FEA13280024444501DB07
:1056C000BDE8F08156F8041F2846FFF7ABFA6B6877
:1056D0003BB10234284657F82410BDE8F041FFF7EB
:1056E00034B90134EAE710B50446FFF7DDFFA36AD9
:1056F000606AD3F89830BDE810402221184770B591
:105700008D68044645B9836AD3F89C300122294646
:10571000606ABDE870401847A9071ED16B68DAB20D
:10572000922A1AD11B0A022B0CD1EB6853B19A07AB
:1057300008D11B79AC2B05D129460322BDE8704066
:10574000FFF758BB29462046FFF7AEFF6968A36AFA
:105750000122D3F89C30090ADAE729462046FFF7F0
:1057600061FAA36A0122D3F89C301146D0E7000009
:1057700001F00F03022B2DE9F04705460C4604D13A
:10578000BDE8F0470909FFF727BA002955D011F005
:10579000030652D10B792C2B38D18968FFF742FAD6
:1057A000E668002E49D016F0030846D17768FAB2B1
:1057B0008E2A334609D13F0A06F1040907F1FF3A60
:1057C000C24510DC013756F827301A79312A12D138
:1057D00099682846FFF726FAAB6A686ADB6CBDE871
:1057E000F0470221184759F8041F2846FFF71AFA14
:1057F00008F10108E4E7322A1FD19968AB6A686AA8
:105800001B6DBDE8F0470222090918472D2B14D162
:105810008C6894B163681B0A022B06D0271D63684D
:10582000B6EB132F10D3BDE8F087E368002BF5D05B
:105830009A07F3D11B79AC2BF0D121462846064AB2
:10584000BDE8F047FFF70CB957F8041F2846FFF7EB
:105850008FFF0136E3E700BF2DAB03082DE9F843C6
:105860000446006AC68A1746B2070D4606D5374A6F
:1058700029462046BDE8F843FFF7F2B801F00F02D1
:10588000022A18D1A37809098BB1838B0133838352
:105890004FF000094FF00108002955D00022FEF713
:1058A000B3FE03780646002B38D0294AE0E7438B45
:1058B00001334383ECE70A79BA4289460BD1896800
:1058C000A37809091BB1838B01338383E2E7438B00
:1058D00001334383DEE79A4218D1A378002BC6D167
:1058E0000122A270896879B301F00F02022A18BF61
:1058F000894646F0040618BFD9F80810C68206BFCC
:105900000909994609094FF00308C5E7896846F077
:1059100002060909C6824FF00508BDE7042303709B
:1059200080F80180236A1B8B032B0DD1482F0BD1EC
:10593000B9F1000F08D0D9F80C102046FFF7C4F8D1
:10594000737843EA00137370BDE8F8836FAA030805
:1059500037AB030849234822FFF780BF4F234E226D
:10596000FFF77CBF2DE9F04F0E4601620021427027
:10597000C1603378072B8DB00446154605D0894A9F
:105980000DB0BDE8F04FFFF76BB8012A05D0036BEF
:10599000021D1B68C06A294698476378D6F80C80B8
:1059A000032B10D10BAA462108F10C00FEF7F8FBDF
:1059B000236B0B9A9B680146E06A98476368708383
:1059C000002B40F0B880D8F81010C1B101F00F03DF
:1059D000022B10D10B09752B3FD006D83E2B3ED0A1
:1059E0005E2B0CD0704A2046CAE740F20262934216
:1059F000F8D1032304E06D4A2046FFF731F8022373
:105A0000049309AAD8F814300893192108A8FEF7BE
:105A1000C7FB4FF000090690069B994521D163789A
:105A2000012B16D9236B04995B68E06A9847637869
:105A3000042B0ED1206A049BE26A0393438B0293EA
:105A40000023CDE900330521D2E90232006906F0D6
:105A5000CBFD6368002B6ED114E00023D0E7012357
:105A6000CEE7099B53F829100B79082B4FEA890BD5
:105A700002D109F10109CFE7052B06D04C4A204697
:105A8000FEF7EEFF0DB0BDE8F08FCB68002BF5D12F
:105A90008B681A792C2AF1D19E6806F00F02022A2F
:105AA000ECD1D3F80CA0BAF1000FE7D01AF0030F35
:105AB000E4D19AF80430302BE0D10AAAA4210AF1EB
:105AC0000800FEF76DFB360940F20F539E42074671
:105AD0001BD1012805D10A9A136803F00F03022B8A
